:020000040800F2
:10000000401501247103000855750008437000086D
:10001000517500087F050008598A0008000000009B
:10002000000000000000000000000000B102000815
:10003000010B0008000000000D030008D178000843
:100040008B0300088B0300088B0300088B03000858
:100050008B0300088B0300088B0300088B03000848
:100060008B0300088B0300088B0300088B03000838
:10007000850500088B0300088B0300088B0300082C
:100080008B0300088B0300088B0300088B03000818
:100090008B0300088B0300088B0300088B03000808
:1000A0008B0300088B0300088B0300088B030008F8
:1000B0008B0300088B0300088B0300088B030008E8
:1000C0008B0300088B0300088B0300088B030008D8
:1000D0008B030008418800088B0300088B0300088D
:1000E0008B0300088B030008000000008B0300084E
:1000F0008B0300088B0300088B0300088B030008A8
:100100008B0300088B0300088B0300088B03000897
:100110008B0300088B0300088B030008357B000865
:100120008B0300088B0300088B0300088B03000877
:100130008B030008650C00088B0300088B03000884
:1001400000000000000000000000000000000000AF
:100150008B0300088B0300088B0300088B03000847
:100160008B0300088B0300088B0300088B03000837
:100170008B0300088B0300088B03000800000000BD
:100180008B0300088B0300088B0300088B03000817
:100190008B0300088B0300088B0300088B03000807
:1001A0008B0300088B0300088B0300088B030008F7
:1001B0008B0300088B0300088B0300088B030008E7
:1001C0008B0300088B0300088B0300088B030008D7
:1001D0008B0300088B0300088B0300088B030008C7
:1001E0008B0300088B0300088B0300088B030008B7
:1001F0008B0300088B0300088B0300088B030008A7
:100200008B0300088B0300088B0300088B03000896
:100210008B0300088B0300088B0300088B03000886
:100220008B0300088B0300088B030008000000000C
:100230008B0300088B030008000000008B030008FC
:100240008B0300088B0300088B0300088B03000856
:100250008B0300088B0300088B0300088B03000846
:100260008B0300088B0300088B0300088B03000836
:100270008B0300088B0300088B03000800000000BC
:100280008B0300088B0300088B03000800000000AC
:10029000000000008B030008DFF810D000F032F9F6
:1002A00000480047A1D00008AFF3008040150124AA
:1002B0002C4B19680868B0E8F04F80F30988BFF349
:1002C0006F8F4FF0000080F311887047000000002E
:1002D00008480068006880F308884FF0000080F349
:1002E000148862B661B6BFF34F8FBFF36F8F00DF24
:1002F00000BF00BF08ED00E0DFF80C00016841F42A
:1003000070010160704700BF88ED00E0EFF30980E5
:10031000BFF36F8F134B1A681EF0100F08BF20ED4C
:10032000108A20E9F04F106009B44FF0500080F3BC
:100330001188BFF34F8FBFF36F8F1AF05BFA4FF046
:10034000000080F3118809BC19680868B0E8F04F14
:100350001EF0100F08BFB0EC108A80F30988BFF3BD
:100360006F8F704764000024EFF305807047000032
:100370000648804706480047FEE7FEE7FEE7FEE73F
:10038000FEE7FEE7FEE7FEE7FEE7FEE7397A000854
:10039000990200082DE9F05F0546002092469B4631
:1003A00088460646814640241BE02846414647468B
:1003B000224600F097F853465A46C01A914110D38E
:1003C00011461846224600F07EF82D1A67EB010808
:1003D0004F4622460120002100F075F817EB000976
:1003E0004E41201EA4F10104DFDC484631462A4676
:1003F0004346BDE8F09F00000649074A086850439D
:1004000043F239021044086040087047014908600F
:1004100070470000FC0100246D4EC64110B5431A20
:10042000934209D28318881803E010F8011D03F8DD
:10043000011D521EF9D210BD40EA01039B0703D0F3
:1004400009E008C9121F08C0042AFAD203E011F813
:10045000013B00F8013B521EF9D210BDD2B201E0BF
:1004600000F8012B491EFBD270470022F6E710B5B9
:1004700013460A4604461946FFF7F0FF204610BD12
:1004800030B504460020034600E05B1C934203D2D3
:10049000E05CCD5C401BF8D030BD30B50B4601466A
:1004A00000202022012409E021FA02F59D4205D313
:1004B00003FA02F5491B04FA02F52844151EA2F1BD
:1004C0000102F1DC30BD202A04DB203A00FA02F1FF
:1004D000002070479140C2F1200320FA03F3194332
:1004E00090407047202A04DB203A21FA02F00021D4
:1004F000704721FA02F3D040C2F120029140084334
:1005000019467047064C074D06E0E06840F00103CD
:1005100094E8070098471034AC42F6D3FFF7C0FECA
:1005200080C00108A0C0010870B58C1810F8015BEC
:1005300015F0070301D110F8013B2A1106D110F87C
:10054000012B03E010F8016B01F8016B5B1EF9D180
:100550002B0705D40023521E0DD401F8013BFAE706
:1005600010F8013BCB1A921C03E013F8015B01F871
:10057000015B521EF9D5A142D8D3002070BD00BF47
:10058000FEE7000010B5024801F0F6FB10BD0000C8
:10059000700500240146374A0868904249D0354A20
:1005A00018320868904244D0324A3032086890428B
:1005B0003FD0304A4832086890423AD02D4A6032E3
:1005C0000868904235D02B4A78320868904230D083
:1005D000284A9032086890422BD0264AA8320868F0
:1005E000904226D0244A0868904222D0224A1832EB
:1005F000086890421DD0204A30320868904218D0D6
:100600001D4A48320868904213D01B4A603208687D
:1006100090420ED0184A78320868904209D0164AA3
:1006200090320868904204D0134AA8320868904279
:1006300001D1012000E00020B0B10A78103A18235F
:10064000B2FBF3F000F007020C4B9A5CCA6503287A
:1006500005D90A686FF30902121D8A6503E00A686A
:100660006FF309028A6503E0086820F0FF008865DF
:10067000886D70471000024010040240FCBC010865
:1006800010B502682B4C0368A34222D0294C1434C5
:100690000368A3421DD0274C28340368A34218D016
:1006A000244C3C340368A34213D0224C50340368DA
:1006B000A3420ED01F4C64340368A34209D01D4CE2
:1006C00078340368A34204D01A4C8C340368A342E4
:1006D00001D1012300E000238BB10378083B1424EF
:1006E000B3FBF4F1144B03EB81030366124B80332D
:1006F000436601F01F040123A340836618E00378DA
:10070000103B1824B3FBF4F10C4B9A4204D80B4B6A
:10071000A83B9A4200D30831094B03EB81030366DF
:10072000074B8033436601F01F040123A340836617
:1007300010BD00000854025800580258B804024086
:10074000000802400179A9B3082940D8204B02686B
:100750009A4222D01E4B143302689A421DD01C4B81
:10076000283302689A4218D0194B3C3302689A42E7
:1007700013D0174B503302689A420ED0144B643397
:1007800002689A4209D0124B783302689A4204D028
:100790000F4B8C3302689A4201D1012200E0002203
:1007A0004AB14A1E0B4B03EB8202C266094A403231
:1007B000026708E00BE04A1E074B03EB8202C266A9
:1007C000054A403202674A1E01239340436770473F
:1007D00008540258005902580009024001460020FE
:1007E0008A69D2B98A6A32B1012A0DD0022A03D0AD
:1007F000032A10D10EE000BFCA6A02F08072B2F183
:10080000807F00D1012007E0CA6AB2F1C07F00D129
:10081000012001E000E000BF36E08A69B2F5005F28
:100820001BD18A6A32B1012A07D0022A03D0032AD7
:1008300011D10AE000BF01200EE0CA6A02F0807206
:10084000B2F1807F00D1012006E0CA6AB2F1C07F18
:1008500000D1012000E000BF16E08A6A32B1012A0F
:1008600005D0022A04D0032A0CD103E000BF00BF48
:10087000012008E0CA6A02F08072B2F1807F00D1E4
:10088000012000E000BF00BF70470000F0B5856D9B
:10089000846D984F0668BE4270D0964F1837066830
:1008A000BE426BD0934F30370668BE4266D0914F40
:1008B00048370668BE4261D08E4F60370668BE4238
:1008C0005CD08C4F78370668BE4257D0894F90373E
:1008D0000668BE4252D0874FA8370668BE424DD048
:1008E000854F0668BE4249D0834F18370668BE421E
:1008F00044D0814F30370668BE423FD07E4F4837E4
:100900000668BE423AD07C4F60370668BE4235D09A
:10091000794F78370668BE4230D0774F90370668F7
:10092000BE422BD0744FA8370668BE4226D0734F04
:100930000668BE4222D0714F14370668BE421DD0F1
:100940006E4F28370668BE4218D06C4F3C37066899
:10095000BE4213D0694F50370668BE420ED0674F73
:1009600064370668BE4209D0644F78370668BE42D5
:1009700004D0624F8C370668BE4201D1012600E0E8
:1009800000263EB1D0E919767E60C66E16B1D0E978
:100990001C767E60574F0668BE4249D0554F1837C7
:1009A0000668BE4244D0534F30370668BE423FD03F
:1009B000504F48370668BE423AD04E4F60370668FF
:1009C000BE4235D04B4F78370668BE4230D0494FD3
:1009D00090370668BE422BD0464FA8370668BE4205
:1009E00026D0454F0668BE4222D0434F18370668CE
:1009F000BE421DD0404F30370668BE4218D03E4F31
:100A000048370668BE4213D03B4F60370668BE4287
:100A10000ED0394F78370668BE4209D0364F90372E
:100A20000668BE4204D0344FA8370668BE4201D1E2
:100A3000012600E00026DEB190F85C6006F01F079A
:100A40003F26BE40AE600668366826F480260768FA
:100A50003E60066873608668402E04D10668B26006
:100A60000668F16044E00668B1600668F2603FE045
:100A7000224F0668BE4222D0204F14370668BE427D
:100A80001DD01E4F28370668BE4218D01B4F3C377A
:100A90000668BE4213D0194F50370668BE420ED0CA
:100AA000164F64370668BE4209D0144F783706687F
:100AB000BE4204D0114F8C370668BE4201D10126D8
:100AC00000E00026A6B190F85C6006F01F07012642
:100AD000BE406660066873608668402E04D1066872
:100AE000B2600668F16003E00668B1600668F26013
:100AF000F0BD0000100002401004024008540258EB
:100B00007047000008B54FF0FF31012019F05AFB83
:100B10000022114620200DF053FD1E49086041F2CD
:100B200071721D491B4800680DF044FB0DF0CCF9B3
:100B300005461A480090002302221946184800680A
:100B40001AF00EFD25E0012000F0BCFC1549C8603C
:100B5000012000F0A5FC13490861012000F0C4FC4D
:100B60001049486114239A010F491048006807F0A2
:100B700099FE0446002C0CDDA2B20B4928460DF06C
:100B80000DFA41F271736A462946024800680EF078
:100B900077F8D8E74C000024ECBE01080A0C13DA01
:100BA0001000002434060024A8260024F8BC010804
:100BB00010B5002210E002EB4204036903EBC4010C
:100BC00000230B604B608B60CB600B614B6100F1CD
:100BD000480343F82210521C042AECD30024C465B5
:100BE00004668466C46684650324036803F5805341
:100BF000C3F83041036803F580530469C3F81C410E
:100C000003694833046804F58054C4F8283110BDE2
:100C100010B500220EE002EB4204C36803EBC401EE
:100C200000230B604B608B60CB6000F1180343F82E
:100C30002210521C042AEED3002484620324036889
:100C400003F58053C3F82C41036803F58053C4684F
:100C5000C3F81441036803F58053C468C3F8204106
:100C600010BD000010B5024802F098FB10BD000056
:100C70005CC6002410B5A2B0044601208DF83300F4
:100C8000002012908DF841008DF8430001208DF86E
:100C900028008DF856008DF8320000208DF84C00A9
:100CA00001208DF8840040030F9000208DF85C0037
:100CB00018908DF885008DF886004FF4C36016906B
:100CC00000208DF830000B9001208DF835000020B9
:100CD0008DF836008DF840001D901B9014908DF813
:100CE00064008DF87A0001208DF8420020202090C9
:100CF00001208DF8440000208DF855004FF0405041
:100D000009904FF480400E9000208DF831000220B1
:100D10001F9000208DF878008DF879008DF8540030
:100D200001208DF8340000201A9001208DF8700009
:100D300009A9204600F09AFA01208DF804000290DB
:100D4000002000908DF81C008DF80D008DF80C002F
:100D50004FF40010069000208DF814004FF400109E
:100D6000049000208DF81D004FF40670089069462D
:100D7000204600F01DFA22B010BD0020704710B5CB
:100D800003F090F910BD000010B5024802F0E2FE39
:100D9000002010BD5CC6002470B504460D46164602
:100DA00033462A462146044802F0C9FD10B14FF0EF
:100DB000FF3070BD0020FCE75CC6002470B504461F
:100DC0000D46164633462A462146044803F018F8D5
:100DD00010B14FF0FF3070BD0020FCE75CC600246E
:100DE0002DE9F04F06460B46914606F1180422699C
:100DF000D4F810C0002754F822109D68BA46C8687D
:100E000000F00040B0F1004F04D004F1140050F89D
:100E1000220010B10220BDE8F08F187800F0040025
:100E2000C8B3C8686FF30F00D3F824B040EA0B00D2
:100E3000C860C86840F48030C8603068006E40F414
:100E40008010D6F800B0CBF86000187800F00800E9
:100E500008B3B3F82CB088686BF31F408860C8688B
:100E600040F40030C860C86820F44020D3F830B0A7
:100E700040EA0B00C8603068406E40F48010D6F83D
:100E800000B0CBF864003068006D40F08060D6F8A8
:100E900000B0CBF85000187800F0100058B1886806
:100EA0006FF30D00D3F818B040EA0B008860C868F3
:100EB00040F08060C860187800F0040018B9187815
:100EC00000F0100070B3C86840F08040C86000BFF8
:100ED00000BF00BFBFF35F8F00BF00BF00BFC86887
:100EE00040F00040C86000BF521C042A00D3121F0B
:100EF00000BF54F822107F1CC86800F00040B0F119
:100F0000004F0FD154F82C1000BF00BF00BFBFF33B
:100F10005F8F00BF00BF00BFC86820F00040C860FE
:100F2000022078E77F1C2868086088686FF30D004E
:100F3000D5F804B040EA0B008860A86868B1AD68D5
:100F4000286848608868DFF864B200EA0B00B5F8EA
:100F500004B040EA0B40886007E0002048608868E1
:100F6000DFF848B200EA0B008860187800F0100043
:100F7000A0B1C86820F4F000B3F820B040EACB403C
:100F8000C860C8686FF31100D3F81CB040EA0B00CA
:100F9000C860C86840F48020C8601FE0C8686FF36C
:100FA0000E00D3F804B040EA0B00C860187800F0D7
:100FB000010038B1C86820F44030D3F814B040EADA
:100FC0000B00C860187800F0200038B1C86820F025
:100FD0004060D3F810B040EA0B00C860187800F009
:100FE000040038B1886820F44040D3F828B040EAC3
:100FF0000B008860C86840F00050C860C86820F0E6
:101000008040C86000BF00BF00BFBFF35F8F00BF5C
:1010100000BF00BFC86840F00040C860187800F00A
:10102000020038B1C86820F06070D3F80CB040EA14
:101030000B00C86095E0C86820F08050C86000BF11
:10104000521C042A00D3121F00BF54F82210C86893
:1010500020F00050C860C86800F00040B0F1004FB8
:1010600004D004F1140050F82200F8B1624654F89C
:1010700022104FF0000815E000BF00BF00BFBFF313
:101080005F8F00BF00BF00BFC86820F00040C8608D
:1010900000BF521C042A00D3121F00BF54F82210B4
:1010A00008F10108B845E7D30220B4E67F1CAD681B
:1010B0002868086088686FF30D00D5F804B040EA2E
:1010C0000B008860A86868B1AD68286848608868C7
:1010D000DFF8D8B000EA0B00B5F804B040EA0B40E6
:1010E000886007E0002048608868DFF8C0B000EA48
:1010F0000B008860187800F0100060B1C8686FF3CA
:101100001100D3F81CB040EA0B00C860C86840F476
:101110008020C86013E0C8686FF30E00D3F804B0F5
:1011200040EA0B00C860187800F0010038B1C868C8
:1011300020F44030D3F814B040EA0B00C8600AF144
:10114000010A00BF00BF00BFBFF35F8F00BF00BF39
:1011500000BFC86840F00040C860C86820F0804008
:10116000C860A86800287FF466AFB9F1000F04D00A
:10117000886840F00040886003E0886820F0004004
:101180008860C86840F08050C86004F11400D4F84A
:1011900024B040F822B0226172B60AF10100D4F8FE
:1011A00028B05844A06262B6002034E6FFFF00C0B9
:1011B00010B5036803F580531B6847F60204A34388
:1011C0000C682343046804F5805423600C798B6811
:1011D00043EA04330C7B43EAC432036803F58053CB
:1011E0005B684DF20104A3431343046804F5805483
:1011F00063604C7B0B6A43EA0442036803F5805347
:10120000D3F80031164C23401343046804F580548E
:10121000C4F800310C7D0B6943EA04134C7F43EAA8
:101220000432036803F58053D3F804310D4C234096
:101230001343046804F58054C4F804310C7F8B69AF
:1012400043EAC472036803F58053D3F80831064CAF
:1012500023401343046804F58054C4F8083110BDDA
:1012600000C0FEFFEFEFC0FFFFFFC07F10B50C68AE
:101270008B6823430C7943EAC4630C7B43EAC45371
:101280004C7B43EA84538C7B43EA4453CC7B43EA54
:1012900004530C7C0CB9012400E0002443EAC4434D
:1012A0004C7C0CB9012400E0002443EA44438C7CCC
:1012B00043EA04434C6923438C6923430C7F43EA8C
:1012C00004334C7F43EAC4238C7F0CB9012400E033
:1012D000002443EA8423CC7F43EA442391F820404E
:1012E0000CB9012400E0002443EA042351F8244F00
:1012F00023430C7943EA04138C6843EA040203682D
:101300001B683D4C23401343046823600B7E5B063F
:101310000C7D43EA04630C7B43EA84434C7B43EA41
:1013200044438C7B24390CB9012400E0002443EAB7
:1013300004434C6B43EA040203685B682F4C234070
:1013400013430468636091F840404B6C43EA042205
:101350000368DB6840F20F14A34313430468E3609F
:1013600091F854400B6D43EA440391F84C400CB99A
:10137000012400E0002443EAC41331F8484F43EA53
:10138000044203681B6F4FF60D7423401343046837
:1013900023678B7B4C7B43EA44020368D3F890308D
:1013A00023F0030313430468C4F890300368D3F8B0
:1013B000003D23F072030C6923430468C4F8003D28
:1013C0000C7E4B6948390CB9012400E0002443EA43
:1013D000841391F8614043EA041391F8624043EAB0
:1013E000C4020368D3F8303D23F07B031343046841
:1013F000C4F8303D10BD0000838004000080F8C0B8
:101400002DE9F8430446002000904FF00108A56E36
:1014100004F1480050F82560E76E2CE0306958B9B7
:10142000684602F005FB009810B94FF0000803E091
:101430000098306100983060B8F1000F1BD000BFF9
:1014400000BF00BFBFF35F8F00BF00BF00BFA06D34
:1014500018B14FF04140F06002E04FF00140F06001
:1014600000BF6D1C042D00D32D1F00BF04F14800E8
:1014700050F825607F1E17B1B8F1000FCED1E06E95
:10148000B84207D00021206800F58050C0F828112C
:10149000A566E766BDE8F88372B600BFFEE7000008
:1014A00001460748405C401C054A50541046405CC9
:1014B0000A2801DB002050540148405C70470000BE
:1014C0000400002470B50446002602F0EBFD05463A
:1014D000044850F824002E1A024840F824503046A0
:1014E00070BD00005806002410B50446002018F016
:1014F000DDFE034941F82400084650F8240010BDE1
:10150000780600242DE9F041044602F0CBFD804628
:1015100014B90120BDE8F08194F83500022808D004
:101520008020606500BF002084F8340000BF0120E7
:10153000F0E7FE492068884249D0FC49183120680C
:10154000884244D0F9493031206888423FD0F74979
:101550004831206888423AD0F44960312068884296
:1015600035D0F24978312068884230D0EF49903147
:10157000206888422BD0ED49A8312068884226D0C7
:10158000EB492068884222D0E94918312068884216
:101590001DD0E74930312068884218D0E4494831ED
:1015A0002068884213D0E2496031206888420ED01A
:1015B000DF4978312068884209D0DD4990312068C0
:1015C000884204D0DA49A8312068884201D101203C
:1015D00000E0002068B12068006820F01E0021684B
:1015E00008602068406920F0800021684861256813
:1015F00006E02068006820F00E0021680860256879
:10160000CA492068884270D0C84918312068884289
:101610006BD0C64930312068884266D0C349483112
:101620002068884261D0C1496031206888425CD01E
:10163000BE4978312068884257D0BC499031206833
:10164000884252D0B949A831206888424DD0B84963
:101650002068884249D0B64918312068884244D071
:10166000B3493031206888423FD0B14948312068C1
:1016700088423AD0AE4960312068884235D0AC49C2
:1016800078312068884230D0A9499031206888425A
:101690002BD0A749A8312068884226D0A5492068C8
:1016A000884222D0A3491431206888421DD0A14924
:1016B00028312068884218D09E493C3120688842F1
:1016C00013D09C495031206888420ED0994964312A
:1016D0002068884209D0974978312068884204D030
:1016E00094498C312068884201D1012000E000201B
:1016F00028B1206E006820F48070216E08608B494C
:101700002068884249D0894918312068884244D0ED
:1017100086493031206888423FD08449483120686A
:1017200088423AD0814960312068884235D07F496B
:1017300078312068884230D07C49903120688842D6
:101740002BD07A49A8312068884226D07849206871
:10175000884222D076491831206888421DD07449C9
:1017600030312068884218D0714948312068884259
:1017700013D06F496031206888420ED06C497831AF
:101780002068884209D06A4990312068884204D094
:101790006749A8312068884206D12068006820F097
:1017A00001002168086005E02068006820F0010061
:1017B0002168086011E002F075FCA0EB0800052824
:1017C0000BD920206065032084F8350000BF00207D
:1017D00084F8340000BF01209CE6286800F0010076
:1017E0000028E8D151492068884249D04F49183132
:1017F0002068884244D04D493031206888423FD02B
:101800004A494831206888423AD0484960312068C6
:10181000884235D0454978312068884230D04349E4
:101820009031206888422BD04049A83120688842F6
:1018300026D03F492068884222D03D49183120688F
:1018400088421DD03A4930312068884218D0384942
:1018500048312068884213D0354960312068884279
:101860000ED0334978312068884209D03049903110
:101870002068884204D02E49A8312068884201D1CE
:10188000012000E0002040B1A66D94F85C0000F05B
:101890001F013F208840B06007E0A76D94F85C000E
:1018A00000F01F01012088407860204920688842AC
:1018B00076D01E4918312068884271D01B493031DA
:1018C000206888426CD0194948312068884267D026
:1018D000164960312068884262D014497831206806
:1018E00088425DD0114990312068884258D00F4914
:1018F000A8312068884253D00D49206888424FD0D3
:101900000B491831206888424AD009493031206893
:10191000884245D0064948312068884240D0044971
:101920006031206888423BD0014905E01000024048
:1019300010040240085402587831206888422FD0A1
:101940002549206888422BD02349183120688842D5
:1019500026D022492068884222D0204914312068AC
:1019600088421DD01D4928312068884218D01B4963
:101970003C312068884213D0184950312068884291
:101980000ED0164964312068884209D01349783155
:101990002068884204D011498C312068884201D1E6
:1019A000012000E0002068B1D4E919104860E06E21
:1019B00040B1E06E006820F48070E16E0860D4E908
:1019C0001C104860012084F8350000BF002084F816
:1019D000340000BF00BF9DE5A00402400854025837
:1019E00070B504460CB9012070BD94F8350002288A
:1019F00003D0802060650120F6E7DC49206888423A
:101A000049D0DA4918312068884244D0D74930316A
:101A1000206888423FD0D5494831206888423AD072
:101A2000D24960312068884235D0D0497831206869
:101A3000884230D0CD499031206888422BD0CB49A4
:101A4000A8312068884226D0C9492068884222D01F
:101A5000C7491831206888421DD0C54930312068F7
:101A6000884218D0C24948312068884213D0C04902
:101A70006031206888420ED0BD49783120688842A4
:101A800009D0BB4990312068884204D0B849A831B8
:101A90002068884201D1012000E00020F0B304203A
:101AA00084F83500B149206888424BD0AF491831DD
:101AB0002068884246D0AD4930312068884241D004
:101AC000AA494831206888423CD0A8496031206842
:101AD000884237D0A54978312068884232D0A3495E
:101AE0009031206888422DD0A049A83120688842D2
:101AF00028D09F492068884224D09D491831206809
:101B000088421FD09A493031206888421AD09849BB
:101B100048312068884215D0954900E020E06031C6
:101B2000206888420ED0924978312068884209D0D6
:101B30008F4990312068884204D08D49A8312068AF
:101B4000884206D12068006820F001002168086002
:101B500009E12068006820F001002168086002E1C6
:101B60002068006820F00E00216808607F49206826
:101B7000884249D07D4918312068884244D07B4949
:101B80003031206888423FD0784948312068884207
:101B90003AD0764960312068884235D0734978312F
:101BA0002068884230D071499031206888422BD01B
:101BB0006E49A8312068884226D06D492068884245
:101BC00022D06B491831206888421DD068493031D5
:101BD0002068884218D0664948312068884213D06E
:101BE00063496031206888420ED0614978312068AD
:101BF000884209D05E4990312068884204D05C490F
:101C0000A8312068884206D12068006820F00100D1
:101C10002168086005E02068006820F00100216864
:101C2000086052492068884270D0504918312068B5
:101C300088426BD04D4930312068884266D04B498C
:101C400048312068884261D0484960312068884224
:101C50005CD0464978312068884257D0434990315A
:101C60002068884252D04149A831206888424DD02E
:101C70003F492068884249D03D4918312068884250
:101C800044D03B493031206888423FD03849483100
:101C9000206888423AD0364960312068884235D081
:101CA000334978312068884230D0314990312068FA
:101CB00088422BD02E49A8312068884226D02D4951
:101CC0002068884222D02B491431206888421DD0D8
:101CD000284928312068884218D026493C3120689C
:101CE000884213D023495031206888420ED02149C0
:101CF00064312068884209D01E49783120688842C2
:101D000004D01C498C312068884201D1012000E0B8
:101D10000020D8B1206E006820F48070216E086029
:101D2000A56D94F85C0000F01F01012088406860F8
:101D3000D4E919104860E06E40B1E06E006820F40C
:101D40008070E16E0860D4E91C104860012084F8BE
:101D5000350000BF002084F8340000BF206D10B1B2
:101D60002046216D884700203EE60000100002401A
:101D700010040240085402582DE9F84F0446002090
:101D80000090FE4800684FF41651B0FBF1FAA66DC2
:101D9000D4F858803768D8F80090F949206888420C
:101DA00049D0F74918312068884244D0F44930318D
:101DB000206888423FD0F2494831206888423AD0B2
:101DC000EF4960312068884235D0ED49783120688C
:101DD000884230D0EA499031206888422BD0E849C7
:101DE000A8312068884226D0E6492068884222D05F
:101DF000E4491831206888421DD0E249303120681A
:101E0000884218D0DF4948312068884213D0DD4924
:101E10006031206888420ED0DA49783120688842E3
:101E200009D0D84990312068884204D0D549A831DA
:101E30002068884201D1012000E0002000287DD0E8
:101E400094F85C0000F01F0108208840384000280A
:101E500068D0CB492068884249D0C94918312068E8
:101E6000884244D0C6493031206888423FD0C449B6
:101E70004831206888423AD0C149603120688842A0
:101E800035D0BF4978312068884230D0BC49903184
:101E9000206888422BD0BA49A8312068884226D0D1
:101EA000B8492068884222D0B64918312068884253
:101EB0001DD0B44930312068884218D0B14948312A
:101EC0002068884213D0AF496031206888420ED024
:101ED000AC4978312068884209D0AA4990312068FD
:101EE000884204D0A749A8312068884204D12068DC
:101EF000006800F0040003E02068006800F00800BB
:101F000080B12068006820F004002168086094F81F
:101F10005C0000F01F0108208840B060606D40F058
:101F20000100606594F85C0000F01F01012088400A
:101F30003840E8B392492068884200E0B7E24BD0CD
:101F40008F4918312068884246D08D493031206849
:101F5000884241D08A494831206888423CD088492B
:101F600060312068884237D08549783120688842BE
:101F700032D083499031206888422DD08049A831E1
:101F80002068884228D07F492068884224D07D4933
:101F90001831206888421FD07A4930312068884241
:101FA0001AD0784948312068884215D0754900E038
:101FB00026E06031206888420ED07249783120686E
:101FC000884209D06F4990312068884204D06D4919
:101FD000A8312068884204D12068406900F0800060
:101FE00002E020680068002050B194F85C0000F026
:101FF0001F0101208840B060606D40F00200606504
:1020000094F85C0000F01F01042088403840E8B3D9
:102010005B49206888424BD0594918312068884272
:1020200046D0574930312068884241D05449483120
:10203000206888423CD0524960312068884237D0BD
:102040004F4978312068884232D04D49903120681C
:1020500088422DD04A49A8312068884228D0494971
:102060002068884224D047491831206888421FD010
:1020700044493031206888421AD0424948312068AA
:10208000884215D03F496031206800E024E0884252
:102090000ED03C4978312068884209D039499031C6
:1020A0002068884204D03749A8312068884204D18A
:1020B0002068006800F0020002E02068006800204C
:1020C00050B194F85C0000F01F0104208840B0601B
:1020D000606D40F00400606594F85C0000F01F0142
:1020E000102088403840E8B325492068884251D004
:1020F00023491831206888424CD02149303120686A
:10210000884247D01E4948312068884242D01C4945
:102110006031206888423DD0194978312068884272
:1021200038D0174990312068884233D01449A831FB
:10213000206888422ED01349206888422AD011494D
:1021400018312068884225D00E49303120688842F5
:1021500020D00C494831206888421BD009496031A1
:10216000206800E04DE0884214D0064978312068AC
:1021700088420FD003499031206805E05C000024BC
:102180001000024010040240884203D0FE4920683B
:10219000884204D12068006800F0080003E020684D
:1021A000006800F0040060B394F85C0000F01F01C8
:1021B00010208840B0602068006800F4802080B162
:1021C0002068006800F4002028B9206CC8B12046BF
:1021D000216C884715E0A06C98B12046A16C884717
:1021E0000FE02068006800F4807028B9206800685B
:1021F00020F0080021680860206C10B12046216C96
:10220000884794F85C0000F01F0120208840384087
:1022100000287DD0DD492068884249D0DB4918314B
:102220002068884244D0D9493031206888423FD064
:10223000D6494831206888423AD0D4496031206874
:10224000884235D0D14978312068884230D0CF4992
:102250009031206888422BD0CC49A8312068884230
:1022600026D0C949A8392068884221D0C64990396A
:10227000206888421CD0C44978392068884217D029
:10228000C14960392068884212D0BF494839206866
:1022900088420DD0BC4930392068884208D0BA49FC
:1022A00018392068884203D0B7492068884204D191
:1022B0002068006800F0100003E02068006800F06B
:1022C000020028B394F85C0000F01F012020884031
:1022D000B06094F8350004282DD12068006820F003
:1022E0001600216808602068406920F0800021689D
:1022F0004861206C08B9A06C28B12068006820F003
:1023000008002168086094F85C0000F01F0100E0FC
:102310003FE03F208840B060012084F8350000BFD6
:10232000002084F8340000BF206D10B12046216DDC
:102330008847BDE8F88F2068006800F4802080B1ED
:102340002068006800F4002028B9606C08B32046BB
:10235000616C88471DE0E06BD8B12046E16B88478F
:1023600017E02068006800F4807068B92068006891
:1023700020F0100021680860012084F8350000BFBB
:10238000002084F8340000BFE06B10B12046E16B00
:102390008847606D00287AD0606D00F00100E8B3D6
:1023A000042084F835007949206888424BD0774969
:1023B00018312068884246D07449303120688842FC
:1023C00041D072494831206888423CD06F49603121
:1023D0002068884237D06D4978312068884232D0F1
:1023E0006A499031206888422DD06849A831206818
:1023F000884228D06449A8392068884223D062499D
:102400009039206888421ED05F4978392068884218
:1024100019D05D4960392068884200E040E012D060
:1024200059494839206888420DD0574930392068C9
:10243000884208D0544918392068884203D052494C
:102440002068884206D12068006820F001002168D9
:10245000086005E02068006820F00100216808603D
:1024600000BF0098401C0090504500D905E020684E
:10247000006800F001000028F3D100BF2068006868
:1024800000F0010020B1032084F8350003E00DE0E6
:10249000012084F8350000BF002084F8340000BF1C
:1024A000E06C002802D02046E16C8847D9E1384929
:1024B0002068884222D036491431206888421DD0D5
:1024C000334928312068884218D031493C3120688E
:1024D000884213D02E495031206888420ED02C49B2
:1024E00064312068884209D02949783120688842BF
:1024F00004D027498C312068884201D1012000E0B6
:1025000000200028D2D02068056894F85C0000F014
:102510001F010420884000EA0900D8B305F0040038
:10252000C0B394F85C0000F01F0104208840C8F894
:10253000040005F4004080B105F4803030B9A06C8F
:102540000028B3D02046A16C88478AE1206C00287F
:10255000ACD02046216C884783E105F02000E8BB21
:102560000A492068884253D00849183120688842B7
:102570004ED0064930312068884249D0034948315D
:102580002068884244D006E0B804024010000240AF
:10259000085402584FE0B44960312068884237D06F
:1025A000B14978312068884232D0AF4990312068F3
:1025B00088422DD0AC49A8312068884228D0AB4948
:1025C0002068884224D0A9491831206888421FD049
:1025D000A6493031206888421AD000E025E0A3499E
:1025E00048312068884213D0A04960312068884271
:1025F0000ED09E4978312068884209D09B4990319D
:102600002068884204D09949A8312068884206D1C0
:102610002068006820F008002168086005E0206854
:10262000006820F0040021680860206C10B3204688
:10263000216C884715E194F85C0000F01F0102202E
:10264000884000EA0900E8B305F00200D0B394F82E
:102650005C0000F01F0102208840C8F8040005F467
:10266000004070B105F4803028B9606C10B120468C
:10267000616C8847F5E0E06BF0B32046E16B88477A
:10268000EFE005F02000C0BB7749206888424ED0BB
:10269000754918312068884249D073493031206823
:1026A000884244D070494831206888423FD06E4902
:1026B0006031206888423AD06B497831206888427E
:1026C00035D000E04EE068499031206888422ED035
:1026D0006549A8312068884229D064492068884229
:1026E00025D0624918312068884220D05F493031B6
:1026F000206888421BD001E06EE02DE05B49483144
:102700002068884213D059496031206888420ED031
:10271000564978312068884209D054499031206860
:10272000884204D05149A8312068884206D12068E7
:10273000006820F014002168086005E02068006847
:1027400020F00A0021680860012084F8350000BFED
:10275000002084F8340000BFE06BE8B32046E16B52
:1027600088477EE094F85C0000F01F010820884054
:1027700000EA090080B305F0080068B33A49206810
:1027800088424BD0384918312068884246D03649B3
:1027900030312068884241D033494831206888422E
:1027A0003CD0314960312068884237D02E49783199
:1027B0002068884232D02C499031206888422DD040
:1027C0002949A8312068884228D0284920688842B1
:1027D00024D02649183100E043E0206888421DD00B
:1027E000224930312068884218D020494831206879
:1027F000884213D01D496031206888420ED01B49A1
:1028000078312068884209D0184990312068884280
:1028100004D01649A8312068884206D12068006893
:1028200020F01C002168086005E02068006820F0A6
:102830000E002168086094F85C0000F01F01012080
:102840008840C8F804000120606584F8350000BFA6
:10285000002084F8340000BFE06C10B12046E16C29
:10286000884700BF65E500001000024010040240E8
:102870002DE9F041044601F015FC804614B9012011
:10288000BDE8F081FE492068884249D0FC491831F2
:102890002068884244D0FA493031206888423FD0CD
:1028A000F7494831206888423AD0F54960312068BC
:1028B000884235D0F24978312068884230D0F049DA
:1028C0009031206888422BD0ED49A8312068884299
:1028D00026D0EC492068884222D0EA491831206885
:1028E00088421DD0E74930312068884218D0E54938
:1028F00048312068884213D0E2496031206888421C
:102900000ED0E04978312068884209D0DD49903105
:102910002068884204D0DB49A8312068884201D170
:10292000012000E00020002873D0606A00B100BFE1
:10293000022084F8350000BF002084F8340000BF76
:10294000CF492068884249D0CD4918312068884253
:1029500044D0CB493031206888423FD0C849483103
:10296000206888423AD0C64960312068884235D014
:10297000C34978312068884230D0C14990312068FD
:1029800088422BD0BE49A8312068884226D0BD4954
:102990002068884222D0BB491831206888421DD067
:1029A000B84930312068884218D0B649483120688B
:1029B000884213D0B3496031206888420ED0B149B3
:1029C00078312068884209D0AE4990312068884229
:1029D00004D0AC49A8312068884206D1206800683C
:1029E00020F001002168086005E02068006820F000
:1029F0000100216808600DE001F054FBA0EB080025
:102A0000052807D920206065032084F835000120BF
:102A100036E76AE02068006800F001000028EBD18A
:102A20002068056898480540D4E9020108432169F7
:102A3000084361690843A1690843E1690843216AC1
:102A400008430543606A042803D1D4E90B01084315
:102A500005438E4800686FF30F00B0F1005F1DD38F
:102A60006068292802D360682E2811D960683F2841
:102A700002D3606842280BD96068472802D3606897
:102A8000482805D960684F2804D36068522801D8C7
:102A9000012000E0002008B145F4801520680560A1
:102AA0002068456925F00705606A0543606A0428C7
:102AB0000DD1A06A0543E06A48B12046FDF78EFEBD
:102AC00028B140206065012084F83500D8E62068F0
:102AD00045612046FDF75EFD064694F85C0000F077
:102AE0001F013F208840B0609EE06949206888420D
:102AF00022D067491431206888421DD064492831AA
:102B00002068884218D062493C312068884213D03E
:102B10005F495031206888420ED05D496431206899
:102B2000884209D05A4978312068884204D05849EF
:102B30008C312068884201D1012000E00020E0B300
:102B400053492068884222D0514914312068884274
:102B50001DD04F4928312068884218D04C493C315B
:102B60002068884213D04A495031206888420ED0EC
:102B7000474964312068884209D045497831206846
:102B8000884204D042498C312068884201D101201A
:102B900000E0002000B100BF022084F8350000BF33
:102BA000002084F8340000BF2068056839480540DB
:102BB000A068402802D1102106E02EE0A0688028FD
:102BC00001D1C10100E00021E06841EAD0012069A3
:102BD00041EAD001606941EAD001A06941EAD0012F
:102BE000E06941EAD001206A41EA101005432068FB
:102BF000056027492068401A1421B0FBF1F08000DD
:102C0000E0652046FDF7C6FC074694F85C0000F03E
:102C10001F0101208840786006E0402060650320A5
:102C200084F8350001202BE61549206888427FD0C2
:102C300013491831206888427AD011493031206810
:102C4000884275D00E4948312068884270D00C49BE
:102C50006031206888426BD0094978312068884209
:102C600066D0074990312068884261D00449A83174
:102C7000206888425CD003492068884258D00BE025
:102C800010000240100402403F8010FE0010005C63
:102C9000085402580F00FEFF3B4918312068884253
:102CA00046D0394930312068884241D036494831D0
:102CB000206888423CD0344960312068884237D04F
:102CC000314978312068884232D02F4990312068CC
:102CD00088422DD02C49A8312068884228D02B4921
:102CE0002068884224D029491431206888421FD0A6
:102CF00026492831206888421AD024493C3120686E
:102D0000884215D0214950312068884210D01F498F
:102D10006431206888420BD01C4978312068884291
:102D200006D01A498C312068884200E000E001D1C9
:102D3000012000E0002000B32046FDF7A1FCA068C0
:102D4000802801D1002060602079216E0860D4E9DC
:102D500019104860606860B16068082809D820468A
:102D6000FDF7F0FC0020E16E0860D4E91C1048601B
:102D700003E00020E06620676067002060650120B6
:102D800084F8350000207BE5100402400854025806
:102D90002DE9F04104460D4616461F464FF0000847
:102DA00014B90120BDE8F08100BF94F83400012877
:102DB00001D10220F6E7012084F8340000BF94F826
:102DC000350001287ED1022084F83500002060659E
:102DD000E4492068884249D0E24918312068884295
:102DE00044D0E0493031206888423FD0DD49483145
:102DF000206888423AD0DB4960312068884235D06B
:102E0000D84978312068884230D0D649903120683E
:102E100088422BD0D349A8312068884226D0D24995
:102E20002068884222D0D0491831206888421DD0BD
:102E3000CD4930312068884218D0CB4948312068CC
:102E4000884213D0C8496031206888420ED0C649F4
:102E500078312068884209D0C3499031206888427F
:102E600004D0C149A8312068884206D12068006892
:102E700020F001002168086005E02068006820F06B
:102E80000100216808603B46324629462046FDF78E
:102E9000FDFCB449206888424BD0B2491831206803
:102EA000884246D0AF4930312068884241D0AD4990
:102EB0004831206888423CD0AA4960312068884265
:102EC00037D000E042E1A74978312068884230D00D
:102ED000A4499031206888422BD0A249A8312068AB
:102EE000884226D0A0492068884222D09E491831C5
:102EF000206888421DD09C4930312068884218D013
:102F0000994948312068884213D097496031206838
:102F100088420ED0944978312068884209D092497D
:102F200090312068884204D08F49A83120688842B7
:102F300001D1012000E0002080B12068006820F06D
:102F40001E0040F0160021680860206CB0B12068B7
:102F5000006840F00800216808600FE02068006801
:102F600020F00E0040F00A0021680860206C28B1B3
:102F70002068006840F004002168086079492068F2
:102F8000884270D077491831206888426BD07549E3
:102F900030312068884266D07249483120688842C2
:102FA00061D070496031206888425CD06D497831C9
:102FB0002068884257D06B4990312068884252D0AF
:102FC0006849A831206888424DD067492068884206
:102FD00049D0654918312068884244D0624930316F
:102FE000206888423FD060494831206888423AD002
:102FF0005D4960312068884235D05B49783120686E
:10300000884230D058499031206888422BD05649A8
:10301000A8312068884226D054492068884222D0AE
:1030200052491431206888421DD050492831206807
:10303000884218D04D493C312068884213D04B4912
:103040005031206888420ED0484964312068884257
:1030500009D0464978312068884204D043498C31F0
:103060002068884201D1012000E0002090B1206E4C
:10307000006800F4803028B1206E006840F4807051
:10308000216E0860E06E28B1E06E006840F4807048
:10309000E16E086033492068884249D031491831CF
:1030A0002068884244D02F493031206888423FD080
:1030B0002C494831206888423AD02A49603120683A
:1030C000884235D0274978312068884230D0254958
:1030D0009031206888422BD02249A831206888424C
:1030E00026D021492068884222D01F491831206803
:1030F00088421DD01C4930312068884218D01A49B6
:1031000048312068884213D01749603120688842CE
:103110000ED0154978312068884209D01249903183
:103120002068884204D01049A8312068884206D11E
:103130002068006840F001002168086010E0206805
:10314000006840F001002168086009E04FF4006069
:10315000606500BF002084F8340000BF4FF0010814
:1031600040461FE610000240100402400854025876
:1031700070B5044600F096FF06462546681C10B15F
:1031800004480078054400BF00F08CFF801BA84273
:10319000FAD370BD580000247047000010B50446F3
:1031A000204600F00BF800F08000802803D1024890
:1031B00000680CF055FB10BDDC0000240146D1F87E
:1031C0008C007047024609B90120704710680068FA
:1031D00000F00C00C86210680068C0F3001081F8AD
:1031E00028001068006800F06000486210680068FD
:1031F000C0F3002080F0010081F820001068006812
:10320000C0F34020C87710680068C0F3802080F0C9
:103210000100887710680068C0F3C0204877106804
:103220000068C0F3003008771068006800F40050B0
:1032300088611068006800F4804048611068006888
:10324000C0F30040887410680068C0F3404080F00C
:103250000100487410680068C0F3C04080F00100AD
:10326000087410680068C0F30050C87310680068E4
:10327000C0F34050887310680068C0F380504873F2
:1032800010680068C0F3C05008731068006800F050
:10329000E060886010680068C0F3C0600871106862
:1032A000006800F0E040086010684068C0F30D005E
:1032B000486310684068C0F3004080F0010081F866
:1032C000320010684068C0F3404081F83100106857
:1032D0004068C0F3804081F8300010684068C0F357
:1032E000006081F8380010684068C0F34460C8632B
:1032F0001068C068C0F3002081F840001068C06802
:1033000000F00F0048641068006FC0F3400081F8BF
:1033100054001068006FC0F3C01080F0010081F805
:103320004C001068006F00F0700008651068006FB6
:10333000000C88641068D0F8900000F0010081F85B
:1033400056001068D0F89000C0F3400081F8550096
:103350001068D0F8000D00F0720088651068D0F891
:10336000300D00F02300C8651068D0F8300DC0F3B0
:10337000C00081F862001068D0F8300DC0F3001072
:1033800081F861001068D0F8300DC0F3801080F033
:10339000010081F86000002017E7000070B50446C6
:1033A000206800F58050D0F8600100F0400040280F
:1033B00012D1206800F58050D0F8340100F04000B0
:1033C000402809D148F24001206800F58050C0F83B
:1033D0006011204600F050FB206800F58050D0F8C6
:1033E000600100F0010088B1206800F58050D0F83D
:1033F000340100F0010048B148F20101206800F5F5
:103400008050C0F86011204600F0E8FC206800F50C
:103410008050D0F8600100F48040B0F5804F46D174
:10342000206800F58050D0F8340100F48040B0F5F9
:10343000804F3CD1D4F8880040F00800C4F88800E0
:10344000206800F58050D0F8600100F48050B0F59D
:10345000805F19D1206800F58050D0F8600141F2FA
:1034600002110840C4F88C00206800F58050D0F8A4
:10347000340120F44041206800F58050C0F8341138
:10348000E020C4F884000FE0206800F58050D0F8F8
:10349000600100F4CD40C4F88C004FF4CD412068A9
:1034A00000F58050C0F860112046FFF777FE2068D5
:1034B000D0F8B45005F48040B0F5804F04D005F446
:1034C0000050B0F5005F12D11434606F40F010006E
:1034D000606754F8140CD0F8B800E067E02020676B
:1034E000143C2046FFF75AFE0020C4F890002068E4
:1034F000D0F8B00000F0100010280CD12068D0F8EF
:10350000C00000F06000C4F89400204600F096F976
:103510000020C4F894002068D0F8B00000F020002B
:1035200020280CD12068D0F8C00000F00F00C4F8AB
:1035300098002046FFF730FE0020C4F898000648A7
:10354000006800F4800030B14FF480000249086048
:10355000204600F053FC70BDA800005838B5044662
:103560000CB9012038BDD4F8840028B92320C4F850
:103570008400204600F0A6F800BF4F48006840F0E5
:1035800002004D4908600846006800F00200009003
:1035900000BF00BF207A18B9002002F06FFF03E0DF
:1035A0004FF4000002F06AFF44480068206800F50C
:1035B0008050006840F00101206800F580500160F3
:1035C00000F070FD05460DE000F06CFD401BB0F50D
:1035D000FA7F07D90420C4F88800E020C4F88400EA
:1035E0000120BFE7206800F58050006800F001006E
:1035F0000028E9D1204600F0ADFA02F0B3F93049D5
:10360000B0FBF1F0401E2168C1F8DC002046FDF758
:1036100031FB206800F58050D0F8000120F4E01064
:1036200040F40021206800F58050C0F80011207D92
:1036300000F0030038B10120C4F88800E020C4F88D
:10364000840001208EE7206800F58050D0F8080142
:1036500047F6FE718843616940EA4101206800F540
:103660008050C0F808112046FDF7D2FA2046FDF739
:103670009FFA606800796168497940EA0120216811
:10368000C1F800036068C07800066168897840EA84
:1036900001406168497840EA01206168097808437F
:1036A0002168C1F804030020C4F888001020C4F881
:1036B0008400002056E70000F44402580404005837
:1036C00040420F0010B586B00446142101A8FCF753
:1036D000CCFE5449206888427ED100BF5248006821
:1036E00040F40040504908600846006800F400407B
:1036F000009000BF00BF00BF0846006840F4803063
:1037000008600846006800F48030009000BF00BFE9
:1037100000BF0846006840F40030086008460068B2
:1037200000F40030009000BF00BF00BF3E480830EA
:10373000006840F004003C49083108600846006811
:1037400000F00400009000BF00BF00BF0846006802
:1037500040F0010008600846006800F00100009099
:1037600000BF00BF00BF0846006840F002000860CC
:103770000846006800F00200009000BF00BF00BFD4
:103780000846006840F0400008600846006800F005
:103790004000009000BF00BF322001900220029044
:1037A00000200390032004900B20059001A91F48DE
:1037B00000F066FB8620019002200290002003901A
:1037C000032004900B20059001A9194800F058FB34
:1037D0004FF40060019000E022E0022002900020FF
:1037E0000390032004900B20059001A9114800F0DC
:1037F00047FB4FF4C040019002200290002003904C
:10380000032004900B20059001A90B4800F038FB21
:10381000002205213D2000F067FD3D2000F050FD15
:1038200006B010BD00800240D8440258000802587B
:1038300000000258000402580018025870472DE991
:10384000F05F04460F464FF00008C34647B9D4F86E
:10385000880040F00100C4F888000120BDE8F09F16
:10386000D4F88400232801D00120F7E7E66D04F1A5
:10387000480050F82650E06EC0F1040941E0E868C5
:1038800000F0804018B16968A16729686167E8683D
:1038900000F0005008B9E06F38B3E86800F000505D
:1038A00010B1002121666166D4F814A0E86800F028
:1038B000805048B1E868C0F30E01606EA1EB000AC9
:1038C000E96821674FF0010B1FFA8AF304F18001C8
:1038D000081F2A6900F0DAF8206E401C2066606E2E
:1038E00000EB0A0161660020286100BF761C042EEF
:1038F00000D3361F00BF04F1480050F8265008F1ED
:103900000108E86800F0004020B9C84502D2BBF1C8
:10391000000FB4D0E06E00EB0801E166E06E10B17C
:103920002046FDF76DFDE665BBF1010F05D1E06FA7
:1039300038600021E167002090E701208EE72DE943
:10394000F04704460F46904699462068D0F800029A
:1039500000F0010010B10120BDE8F0872068D0F828
:10396000005225F0787040EA475525F4F81040EAF7
:10397000084545F00C0545F001052068C0F80052E7
:1039800000F090FB064607E000F08CFB801BB0F5D2
:103990007A7F01D90120DFE72068D0F8000200F02B
:1039A00001000028F0D12068D0F8040280B2C9F8E4
:1039B00000000020D0E72DE9F047064606F1180484
:1039C000A76AE56A4FF001082BE04FF001097F1E5E
:1039D00004F1140050F8250020B9681C00F003051C
:1039E0004FF00009B9F1000F1BD005EB4501F0685D
:1039F00000EBC100C06800F0004080B904F1140180
:103A000051F8250000F0F4F9002104F1140040F809
:103A10002510681C00F00305A762E56201E04FF085
:103A2000000817B1B8F1000FCFD10020BDE8F08732
:103A30007CB504460D480AF053F9054685B105F1F9
:103A4000200020600A4828614FF4C06120682B469E
:103A50004122CDE90001002108460CF0B7F904E04D
:103A6000012004490870002020607CBD3CBD010895
:103A700059050108D800002410B504460248006822
:103A80000BF0EEFE10BD0000DC0000242DE9F04735
:103A900004460F462146BC460020A2F12000002526
:103AA0000560058143810D680DB9086002E0DCF80E
:103AB00000502860CCF80000086803E005891D4428
:103AC000058100680028F9D115461E46002E29DD23
:103AD00005F01F0A0AEB0608A94600BF00BF00BF99
:103AE000BFF34F8F00BF00BF00BF00BFDFF83CA097
:103AF000CAF8009009F12009A8F12008B8F1000FD8
:103B0000F4DC00BF00BF00BFBFF34F8F00BF00BF9A
:103B100000BF00BF00BF00BFBFF36F8F00BF00BF7B
:103B200000BF00BF00BFBDE8F08700005CEF00E011
:103B300070B504460D460DB9012070BDD4F884005F
:103B4000102805D129462046FDF790FB0020F4E718
:103B50000120F2E770B506463068D0F8005225F42F
:103B6000706501F0FFFE04461348844205D31348F4
:103B7000844202D245F400751AE01048844205D30D
:103B80000F48844202D245F4407511E00C4884424B
:103B900003D30C48844200D20AE00A48844205D389
:103BA0000948844202D245F4807501E045F48065FD
:103BB0003068C0F8005270BD002D3101C00E1602F1
:103BC0000087930300E1F50580D1F00810B50446A5
:103BD000D4F88400102863D12320C4F88400012184
:103BE000A1652068D0F80C072E4908432168C1F868
:103BF0000C072068D0F810072B4908432168C1F84A
:103C000010070421E1662046FDF7FAFB20680068F2
:103C100040F00200216808602068006840F0010060
:103C2000216808602068D0F8000D40F0010021688C
:103C3000C1F8000D206800F58050D0F8040140F074
:103C40000101206800F58050C0F80411206800F5DB
:103C50008050D0F8080140F00101206800F5805044
:103C6000C0F80811206800F58050D0F8600140F4D9
:103C70008171206800F58050C0F86011206800F55F
:103C80008050D0F834014DF2C1010843216801F59C
:103C90008051C1F834012320C4F88400002010BDF5
:103CA0000120FCE76000020C00C0200C10B50146AA
:103CB000D1F8840023284ED1C1F88400086800F5AB
:103CC0008050D0F834014DF2C104A0430C6804F5D3
:103CD0008054C4F83401086800F58050D0F804011D
:103CE00020F00104086800F58050C0F8044108681D
:103CF00000F58050D0F8080120F00104086800F5B4
:103D00008050C0F808410868006820F001000C6885
:103D100020600868D0F8000D40F001000C68C4F87D
:103D2000000D0868006820F002000C682060002286
:103D300008E001F1480050F82230D86820F08040B7
:103D4000D860521C042AF4D300248C651020C1F8DA
:103D50008400002010BD0120FCE770B504460D462C
:103D60003DB9D4F8880040F00100C4F88800012073
:103D700070BDD4F8840023282ED1696BE163012241
:103D800029462046FDF72CF838B1D4F8880040F0D9
:103D90000200C4F888000120EAE700BF00BF00BFAE
:103DA000BFF34F8F00BF00BF00BF00BFA06A401C21
:103DB000A062A06A042802D3A06A001FA06200BF0C
:103DC00004F11800A16A50F82110206800F5805015
:103DD000C0F820110020CBE70120C9E710B5044648
:103DE000024800680BF03CFD10BD0000E00000241C
:103DF00010B5044620460CF0DBFA10BD70470000F9
:103E00002DE9F04705460F46904699462868D0F8B8
:103E1000000200F0010010B10120BDE8F087286821
:103E2000D0F8004224F0787040EA475424F4F810A7
:103E300040EA084424F00C00041D44F001041FFA79
:103E400089F00D4908600D48C0F8004200F02AF9D9
:103E5000064607E000F026F9801BB0F57A7F01D90D
:103E60000120DAE72868D0F8000200F001000028FD
:103E7000F0D100BFD1E70000048202400080024080
:103E8000F8B502460B4600216F4DD7E001278F4061
:103E90001E6806EA0704002C72D01E7906F003069D
:103EA000012E04D01E7906F00306022E13D190686D
:103EB0004F000326BE40B0434F00DE68BE40304393
:103EC0009060506801268E40B0431E79C6F30016FC
:103ED0008E40304350601E7906F00306032E09D051
:103EE000D0684F000326BE40B0434F009E68BE40DE
:103EF0003043D0601E7906F00306022E13D1CF089E
:103F000002F1200656F827004E07F70E0F26BE4096
:103F1000B0434F07FF0E1E69BE403043CF0802F189
:103F2000200646F8270010684F000326BE40B04325
:103F30001E7906F003064F00BE40304310605E68F5
:103F400006F44036002E78D000BF404E366846F06A
:103F500002063E4F3E603E46366806F00206009678
:103F600000BF00BF3A4E8F0856F827008E07370F64
:103F70000F26BE40B043374EB24202D100262EE09B
:103F80005BE0354EB24201D1012628E0334EB24209
:103F900001D1022623E0324EB24201D103261EE0B7
:103FA000304EB24201D1042619E02F4EB24201D167
:103FB000052614E02D4EB24201D106260FE02C4E0C
:103FC000B24201D107260AE02A4EB24201D10826A8
:103FD00005E0294EB24201D1092600E00A268F07EA
:103FE0003F0FBE4030431A4E8F0846F827004FF06F
:103FF000B0463068A0435E6806F4801606B12043E0
:104000004FF0B04630607068A0435E6806F400165A
:1040100006B120434FF0B04670606868A0435E6808
:1040200006F4003606B1204368602868A0435E6845
:1040300006F4803606B120432860491C1E68CE4035
:10404000002E7FF423AFF8BD80000058F4440258DE
:1040500008040058000002580004025800080258E2
:10406000000C0258001002580014025800180258A0
:10407000001C02580020025800240258024613690E
:104080000B400BB1012000E0002070470AB18161B4
:1040900001E00B048361704701480068000C704721
:1040A0000010005C014800687047000050000024C8
:1040B00003480068034909780844014908607047CB
:1040C000500000245800002410B5032000F04AF9E5
:1040D00001F092FC10490968C1F303210F4A515CB9
:1040E00001F01F0120FA01F40B48006800F00F00F6
:1040F0001146085C00F01F0024FA00F0084908602F
:10410000084804600F2000F00FF808B1012010BD2E
:1041100000F0BEF80020FAE7184402582CBD010850
:10412000600000245C000024F0B58BB00446102C25
:104130000AD200222146372000F0D6F8372000F0BE
:10414000BFF81C48046002E001200BB0F0BD00BFC6
:104150001948006840F020001749086008460068C8
:1041600000F02000019000BF00BF02A903A801F0E9
:10417000C3FB089E1EB901F01BFC054602E001F0DE
:1041800017FC45000D48B5FBF0F0471E0C480D49E3
:10419000086040F2E7310B48C160476000210161CF
:1041A000816002F078F918B9064802F0ADF9CCE761
:1041B0000120CAE754000024E844025840420F009E
:1041C00000140040E80500244178154A1160017888
:1041D000F9B1121D41681160017B0907C27A41EAF9
:1041E0000261827A41EAC241427B41EA8241827B9A
:1041F00041EA4241C27B41EA0241427A41EA02215C
:10420000027A41EA420102781143054A08321160FC
:1042100005E00021024A121D1160121D1160704755
:1042200098ED00E000BF00BF00BFBFF35F8F00BF8D
:1042300000BF00BF0548006820F4803003490860D3
:1042400000200249703108607047000024ED00E052
:1042500040F001010D4A11600C497039096841F4C0
:1042600080310A4A703A116000BF00BF00BFBFF33F
:104270004F8F00BF00BF00BF00BF00BF00BFBFF334
:104280006F8F00BF00BF00BF7047000094ED00E0DB
:1042900008B500BF0948006840F0020007490860FF
:1042A0000846006800F00200009000BF00BF002236
:1042B0000F21901E00F018F808BD0000F4440258C9
:1042C0000146084600280DDB00BF00BF00F01F03B9
:1042D00001229A4043099B0003F1E023C3F8002127
:1042E00000BF00BF00BF70472DE9F05F80460D465C
:1042F000164604F0C3FB074639462A46334601F00A
:104300000700C0F1070ABAF1040F02D94FF0040AFE
:1043100001E0C0F1070AD14600F1040ABAF1070F23
:1043200002D24FF0000A01E0A0F1030AD4464FF098
:10433000010A0AFA09FAAAF1010A0AEA020A0AFAC1
:104340000CFA4FF0010B0BFA0CFBABF1010B0BEA73
:10435000030B4AEA0B042146404604F097FBBDE8F4
:10436000F09F000000BF00F00702064B19684FF6EF
:10437000FF031940044B0B4343EA0221014B196030
:1043800000BF70470CED00E00000FA0570B5044670
:1043900015480068C0F3800048B91348006800F071
:1043A0000700A04201D0012070BD0020FCE70E48AC
:1043B000006820F0070020430B490860FFF772FEF9
:1043C000054607E0FFF76EFE401BB0F57A7F01D986
:1043D0000120E9E7044808380068C0F340300028AD
:1043E000F0D00020E0E700000C48025810B501F0C2
:1043F000B9FA05490968C1F30211044A515C01F098
:104400001F01C84010BD0000204402582CBD010807
:1044100070B50146844D2D6805F00303824D2D686B
:10442000C5F30530804D2D1D2D68C5F300147E4D5C
:1044300014352D68C5F3CC0515FB04F501EE105AB3
:10444000B8EE411AF0EE410A00286FD023B1012BDB
:104450004ED0022B6BD16BE0734D283D2D68C5F318
:1044600040153DB3704D283D2D68C5F3C1066F4D15
:1044700025FA06F201EE102AF8EE411A01EE100AB2
:10448000B8EE411A81EE812A9FED691AC0EE811AB9
:10449000654D10352D68C5F3080501EE105AB8EECC
:1044A000411A31EE811AF7EE001A31EE211A22EE8E
:1044B000010A1CE001EE100AB8EE411ADFED5D1AA8
:1044C00081EE812A9FED5A1AC0EE811A564D1035A1
:1044D0002D68C5F3080501EE105AB8EE411A31EE09
:1044E000811AF7EE001A31EE211A22EE010A5BE082
:1044F00001EE100AB8EE411ADFED4F1A81EE812A63
:104500009FED4B1AC0EE811A474D10352D68C5F34B
:10451000080501EE105AB8EE411A31EE811AF7EE95
:10452000001A31EE211A22EE010A3DE077E01DE08B
:1045300001EE100AB8EE411A9FED402AC2EE011AB0
:104540009FED3B1A80EE812A374D10352D68C5F35B
:10455000080501EE105AB8EE411A32EE011AB7EE14
:10456000002A31EE021A21EE810A1DE001EE100A46
:10457000B8EE411ADFED301A81EE812A9FED2C1A38
:10458000C0EE811A284D10352D68C5F3080501EEDF
:10459000105AB8EE411A31EE811AF7EE001A31EED8
:1045A000211A22EE010A00BF00BF1F4D10352D68F1
:1045B000C5F3462501EE105AB8EE411AF7EE001A7F
:1045C00031EE211AC0EE011ABCEEE11A81ED001A9B
:1045D000154D10352D68C5F3064501EE105AB8EE9D
:1045E000411AF7EE001A31EE211AC0EE011ABCEEA4
:1045F000E11A81ED011A0C4D10352D68C5F30665E1
:1046000001EE105AB8EE411AF7EE001A31EE211AF7
:10461000C0EE011ABCEEE11A81ED021A03E000259A
:104620000D604D608D6070BD284402580090D0032D
:10463000000000460024744C0024744A20BCBE4B89
:1046400070B50146844D2D6805F00303824D2D6839
:10465000C5F30550804D2D1D2D68C5F300247E4DFA
:104660001C352D68C5F3CC0515FB04F501EE105A79
:10467000B8EE411AF0EE410A00286FD023B1012BA9
:104680004ED0022B6BD16BE0734D283D2D68C5F3E6
:1046900040153DB3704D283D2D68C5F3C1066F4DE3
:1046A00025FA06F201EE102AF8EE411A01EE100A80
:1046B000B8EE411A81EE812A9FED691AC0EE811A87
:1046C000654D18352D68C5F3080501EE105AB8EE92
:1046D000411A31EE811AF7EE001A31EE211A22EE5C
:1046E000010A1CE001EE100AB8EE411ADFED5D1A76
:1046F00081EE812A9FED5A1AC0EE811A564D183567
:104700002D68C5F3080501EE105AB8EE411A31EED6
:10471000811AF7EE001A31EE211A22EE010A5BE04F
:1047200001EE100AB8EE411ADFED4F1A81EE812A30
:104730009FED4B1AC0EE811A474D18352D68C5F311
:10474000080501EE105AB8EE411A31EE811AF7EE63
:10475000001A31EE211A22EE010A3DE077E01DE059
:1047600001EE100AB8EE411A9FED402AC2EE011A7E
:104770009FED3B1A80EE812A374D18352D68C5F321
:10478000080501EE105AB8EE411A32EE011AB7EEE2
:10479000002A31EE021A21EE810A1DE001EE100A14
:1047A000B8EE411ADFED301A81EE812A9FED2C1A06
:1047B000C0EE811A284D18352D68C5F3080501EEA5
:1047C000105AB8EE411A31EE811AF7EE001A31EEA6
:1047D000211A22EE010A00BF00BF1F4D18352D68B7
:1047E000C5F3462501EE105AB8EE411AF7EE001A4D
:1047F00031EE211AC0EE011ABCEEE11A81ED001A69
:10480000154D18352D68C5F3064501EE105AB8EE62
:10481000411AF7EE001A31EE211AC0EE011ABCEE71
:10482000E11A81ED011A0C4D18352D68C5F30665A6
:1048300001EE105AB8EE411AF7EE001A31EE211AC5
:10484000C0EE011ABCEEE11A81ED021A03E0002568
:104850000D604D608D6070BD284402580090D003FB
:10486000000000460024744C0024744A20BCBE4B57
:104870002DE9F04104460025A8464FF00062D4E936
:10488000001011400020134659404040014331D1EF
:10489000A06E48B1B0F5801F0DD0B0F5001F11D04B
:1048A000B0F5401F16D114E0F948006840F400301C
:1048B000F749086010E0022104F1080002F09CFEB4
:1048C000054609E0022104F1280002F047FF0546F1
:1048D00002E001E0012500BF00BF55B9EC482430DB
:1048E000006820F44010A16E0843E94924310860B3
:1048F00000E0A8464FF48073D4E90010194000206E
:104900005940404001432ED1A06D05281BD2DFE85D
:1049100000F0030A11181900DD48006840F4003067
:10492000DB49086011E0002104F1080002F064FE98
:1049300005460AE0002104F1280002F00FFF0546B9
:1049400003E002E001E0012500BF00BF55B9D048F7
:104950002430006820F00700A16D0843CC492431C1
:10496000086000E0A8464FF40073D4E90010194035
:10497000002059404040014334D1E06D802818D0D8
:1049800003DC40B140281DD10CE0C02818D0B0F5A0
:10499000807F17D115E0BE48006840F40030BC4964
:1049A000086011E0002104F1080002F025FE054630
:1049B0000AE0002104F1280002F0D0FE054603E0E1
:1049C00002E001E0012500BF00BF55B9B048243026
:1049D000006820F4E070E16D0843AD4924310860BF
:1049E00000E0A8464FF48063D4E90010194000208D
:1049F00059404040014339D1D4F8A800B0F5800FA8
:104A00001AD004DC50B1B0F5001F1ED10DE0B0F596
:104A1000C00F18D0B0F5000F17D115E09C48006802
:104A200040F400309A49086011E0002104F10800C8
:104A300002F0E2FD05460AE0002104F1280002F040
:104A40008DFE054603E002E001E0012500BF00BF46
:104A50005DB98F482C30006820F46000D4F8A810AD
:104A600008438B492C31086000E0A8464FF40062EF
:104A7000D4E9001011400020134659404040014342
:104A800039D1D4F8AC00B0F1007F1AD004DC50B1B9
:104A9000B0F1807F1ED10DE0B0F1407F18D0B0F1B1
:104AA000806F17D115E07A48006840F400307849EB
:104AB000086011E0002104F1080002F09DFD0546A8
:104AC0000AE0002104F1280002F048FE054603E058
:104AD00002E001E0012500BF00BF5DB96C482C3049
:104AE000006820F0E060D4F8AC10084368492C312D
:104AF000086000E0A8464FF00073D4E900011840B8
:104B0000002158404940084328D1E06CA8B1102842
:104B100004D0202809D0302810D10DE05C4800686E
:104B200040F400305A4908600AE0022104F108000C
:104B300002F062FD054603E002E001E0012500BF4E
:104B400000BF55B952482030006820F03000E16CB9
:104B500008434F492031086000E0A8464FF48053D5
:104B6000D4E900101940002059404040014337D19A
:104B7000206EB0F5005F1AD004DC50B1B0F5805F54
:104B80001ED10DE0B0F5405F18D0B0F5804F17D1C1
:104B900015E03F48006840F400303D49086011E0EE
:104BA000002104F1080002F027FD05460AE000217B
:104BB00004F1280002F0D2FD054603E002E001E026
:104BC000012500BF00BF55B931482430006820F4EA
:104BD000E040216E08432E492431086000E0A846D9
:104BE0004FF40053D4E900101940002059404040D0
:104BF000014335D1606EB0F5403F1ED007DC68B18F
:104C0000B0F5803F0BD0B0F5003F19D10EE0B0F504
:104C1000802F13D0B0F5A02F12D110E012E00121A7
:104C200004F1080002F0E8FC05460BE0012104F164
:104C3000280002F093FD054604E003E002E001E0F5
:104C4000012500BF00BF55B911482430006820F489
:104C5000E020616E08430E492431086000E0A84658
:104C60004FF48043D4E900011840002158404940E6
:104C7000084337D1D4F8B000B0F1405F20D009DC50
:104C800078B1B0F1805F0DD0B0F1005F1BD110E0C2
:104C90002C440258B0F1804F13D0B0F1A04F12D184
:104CA00010E012E0012104F1080002F0A5FC054625
:104CB0000BE0012104F1280002F050FD054604E05C
:104CC00003E002E001E0012500BF00BF4DB9FE484E
:104CD000006820F0E040D4F8B0100843FA490860BA
:104CE00000E0A8464FF40042D4E900101140002033
:104CF000134659404040014329D1206FB0B1B0F173
:104D0000805F03D0B0F1005F11D108E0EE482C388D
:104D1000006840F40030EC492C39086009E00121BA
:104D200004F1080002F068FC054602E001E00125FC
:104D300000BF00BF55B9E4480838006820F0405073
:104D4000216F0843E0490839086000E0A8464FF0A9
:104D50008072D4E9001011400020134659404040B1
:104D600001432AD1A06CB8B1012804D002280BD08D
:104D7000032812D10FE0D4482C38006840F40030EA
:104D8000D1492C3908600AE0022104F1080002F040
:104D900033FC054603E002E001E0012500BF00BF4F
:104DA00055B9C9480C38006820F00300A16C0843CD
:104DB000C5490C39086000E0A8464FF48002D4E9E8
:104DC00000011040002113465840494008437DD15E
:104DD000BE48006840F48070BC490860FFF762F983
:104DE000064606E0FFF75EF9801B642801D903251B
:104DF00005E0B648006800F480700028F2D000BFDB
:104E000085BBB1481830006800F44070B4F8B410A5
:104E100001F44071884213D0AB481830006820F488
:104E20004077A9481830006840F48030A64918310E
:104E300008600846006820F4803008600846076073
:104E4000D4F8B400B0F5807F15D1FFF72BF90646F2
:104E500009E0FFF727F9801B41F28831884202D927
:104E6000032507E038E0984818300068C0F3400098
:104E70000028EED000BF55BB00BFB4F8B40000F46A
:104E80004070B0F5407F0ED18F484838006820F45C
:104E90007C518F4AD4F8B400104041EA10108A497E
:104EA0004839086007E088484838006820F47C509A
:104EB000854948390860844818300068B4F8B4104F
:104EC000C1F30B0108438049183101E005E001E01E
:104ED000086002E0A84600E0A8460122D4E90001EB
:104EE00010400021134658404940084330D1E06F3C
:104EF00018281AD005DC48B1082808D0102817D186
:104F00000CE0202812D0282812D110E012E0012154
:104F100004F1080002F070FB05460BE0012104F1EA
:104F2000280002F01BFC054604E003E002E001E07B
:104F3000012500BF00BF55B96348001F006820F07D
:104F40003800E16F08436049091F086000E0A84687
:104F50000222D4E900011040002113465840494084
:104F6000084329D1A06F062816D2DFE800F0030419
:104F70000B12131412E0012104F1080002F03CFBB3
:104F800005460BE0012104F1280002F0E7FB05468D
:104F900004E003E002E001E0012500BF00BF55B9D5
:104FA0004948001F006820F00700A16F08434649E8
:104FB000091F086000E0A8460423D4E90010194046
:104FC000002059404040014329D1D4F894000628DC
:104FD00016D2DFE800F003040B12131412E00121D3
:104FE00004F1080002F008FB05460BE0012104F182
:104FF000280002F0B3FB054604E003E002E001E014
:10500000012500BF00BF4DB92F48006820F0070000
:10501000D4F8941008432C49086000E0A8462023E7
:10502000D4E900011840002158404940084337D1D5
:10503000D4F89000B0F1405F1ED007DC68B1B0F149
:10504000805F0BD0B0F1005F19D10EE0B0F1804F5E
:1050500013D0B0F1A04F12D110E012E0002104F102
:10506000080002F0C9FA05460BE0022104F128000D
:1050700002F074FB054604E003E002E001E00125D4
:1050800000BF00BF5DB91048001F006820F0E0407D
:10509000D4F8901008430C49091F086000E0A846A6
:1050A0004023D4E9001019400020594040400143FA
:1050B0003CD1D4F89C00B0F5406F25D00EDCA0B1F7
:1050C000B0F5806F12D005E05844025800480258ED
:1050D000FFFCFF0FB0F5006F19D10EE0B0F5805F57
:1050E00013D0B0F5A05F12D110E012E0002104F15E
:1050F000080002F081FA05460BE0022104F12800C5
:1051000002F02CFB054604E003E002E001E001258B
:1051100000BF00BF4DB9FE48006820F4E050D4F84D
:105120009C100843FA49086000E0A8468023D4E9AF
:1051300000101940002059404040014335D1D4F8B7
:10514000A000B0F5C04F1ED007DC68B1B0F5005F1D
:105150000BD0B0F5804F19D10EE0B0F5004F13D051
:10516000B0F5204F12D110E012E0002104F1080048
:1051700002F042FA05460BE0022104F1280002F099
:10518000EDFA054604E003E002E001E0012500BF7E
:1051900000BF4DB9DE48006820F46040D4F8A0108C
:1051A0000843DB49086000E0A8460823D4E9001062
:1051B0001940002059404040014317D1D4F88400E1
:1051C000B0F5805F07D1022104F1280002F0C6FA91
:1051D00008B14FF00108CE48001F006820F440508D
:1051E000D4F884100843CA49091F08601023D4E981
:1051F00000101940002059404040014315D1D4F817
:105200009800B0F5807F07D1022104F1280002F058
:10521000A5FA08B14FF00108BD48006820F44070BD
:10522000D4F898100843BA4908604FF40022D4E932
:10523000000110400021134658404940084327D13F
:10524000D4F8A40030B1B0F5803F0AD0B0F5003FEB
:105250000FD10DE0002104F1080002F0CDF9054660
:1052600009E0022104F1280002F078FA054602E084
:1052700001E0012500BF00BF4DB9A548006820F43A
:105280004030D4F8A4100843A149086000E0A846C3
:105290004FF48023D4E900011840002158404940D0
:1052A00008432DD1D4F88800B0F5801F06D0B0F5A2
:1052B000001F0CD0B0F5401F11D10FE094482C38DE
:1052C000006840F4003092492C39086009E001215F
:1052D00004F1280002F042FA054602E001E001254F
:1052E00000BF00BF5DB98A48001F006820F440106D
:1052F000D4F8881008438649091F086000E0A846D2
:105300004FF48032D4E90001104000211346584088
:105310004940084325D1206D18B1B0F5803F10D128
:1053200008E07B482C38006840F4003078492C397C
:10533000086008E0022104F1080002F05DF905466A
:1053400001E0012500BF00BF55B971480C38006865
:1053500020F48030216D08436D490C39086000E06D
:10536000A8464FF00052D4E9001011400020134627
:1053700059404040014307D1022104F1280002F0C6
:10538000EDF908B14FF001084FF40033D4E9000102
:105390001840002158404940084329D1D4F88000E2
:1053A000A0B1B0F5807F06D0B0F5007F0CD0B0F58D
:1053B000407F0CD109E056482C38006840F400309A
:1053C00053492C39086004E003E002E001E00125C4
:1053D00000BF00BF5DB94E48001F006820F4407058
:1053E000D4F8801008434A49091F086000E0A84625
:1053F0004FF48012D4E900101140002013465940A8
:105400004040014309D142480838006820F000407C
:10541000616F08433E49083908604FF08052D4E973
:1054200000101140002013465940404001430AD16A
:1054300037484838006820F48040D4F8B810084352
:105440003349483908604FF40012D4E90010114084
:105450000020134659404040014309D12C480838E8
:10546000006820F08070E16E08432949083908601F
:105470004FF08042D4E900101140002013465940FB
:105480004040014311D100BF21484838006820F452
:1054900000401F494839086008460068D4F8BC102D
:1054A00008431B494839086000BF4FF00042D4E967
:1054B000001011400020134659404040014309D1DB
:1054C00013480C38006820F04050616D08431049C3
:1054D0000C3908604FF40002D4E90010114000209C
:1054E00013465940404001430AD10948001F006853
:1054F00020F44000D4F88C1008430549091F0860C7
:10550000012300216068184001224940504001E019
:1055100058440258014306D104F1080002F06CF827
:10552000054605B1A84602220021606810404940A6
:105530005040014307D1012104F1080002F05CF85A
:10554000054605B1A84604230020616819400422DD
:1055500040405140084307D1022104F1080002F005
:105560004BF8054605B1A84608230021606818409D
:10557000082249405040014306D104F1280002F0BE
:10558000EDF8054605B1A8461022002160681040DC
:1055900049405040014307D1012104F1280002F0A5
:1055A000DDF8054605B1A8462022002061681140BB
:1055B00040405140084307D1022104F1280002F085
:1055C000CDF8054605B1A846B8F1000F02D100207C
:1055D000BDE8F0810120FBE72DE9F04104460D46CE
:1055E00014B90120BDE8F081BD48006800F00F004B
:1055F000A8420ED2BA48006820F00F002843B849EC
:1056000008600846006800F00F00A84201D00120A1
:10561000E8E7207800F0040004280ED1B1492069A1
:10562000096801F07001884207D9AE48006820F08F
:10563000700021690843AB490860207800F0080039
:10564000082811D1A749091D6069096801F0700196
:10565000884209D9A348001D006820F070006169E4
:105660000843A049091D0860207800F010001028A8
:1056700011D19C49091DA069096801F4E0618842C3
:1056800009D99848001D006820F4E060A16908432A
:105690009449091D0860207800F02000202811D1CD
:1056A00090490831E069096801F07001884209D920
:1056B0008C480830006820F07000E169084389498F
:1056C00008310860207800F0020002280ED18549D8
:1056D000E068096801F00F01884207D98148006835
:1056E00020F00F00E16808437E490860207800F050
:1056F0000100002850D07B48006820F47060A16849
:105700000843784908606068022807D1754818384E
:105710000068C0F34040F8B9012063E760680328DF
:1057200007D1704818380068C0F34060A0B9012064
:1057300058E76068012807D16A4818380068C0F344
:10574000002048B901204DE7664818380068C0F3CA
:10575000800008B9012045E762480838006820F059
:105760000700616808435F4908390860FEF79AFC42
:10577000064608E0FEF796FC801B41F2883188421D
:1057800001D903202EE757480838006800F0380098
:105790006168B0EBC10FEDD1207800F00200022863
:1057A0000ED15049E068096801F00F01884207D224
:1057B0004C48006820F00F00E16808434949086040
:1057C0004748006800F00F00A8420ED9444800681E
:1057D00020F00F002843424908600846006800F0A6
:1057E0000F00A84201D00120FCE6207800F0040060
:1057F00004280ED13B492069096801F070018842F4
:1058000007D23848006820F0700021690843354904
:105810000860207800F00800082811D13149091DDE
:105820006069096801F07001884209D22D48001DA5
:10583000006820F07000616908432A49091D08606A
:10584000207800F01000102811D12649091DA06908
:10585000096801F4E061884209D22248001D00680D
:1058600020F4E060A16908431E49091D0860207802
:1058700000F02000202811D11A490831E069096898
:1058800001F07001884209D216480830006820F003
:105890007000E169084313490831086000F0ACF872
:1058A00010490968C1F303210F4A515C01F01F013F
:1058B00020FA01F70B48006800F00F001146085C61
:1058C00000F01F0027FA00F0084908600848076048
:1058D00008480068FEF728FC8046404682E6000043
:1058E00000200052184402582CBD0108600000241A
:1058F0005C000024540000243F220260174A126812
:1059000002F007024260154A0832126802F470621F
:105910008260124A0832126802F00F02C2600F4A17
:105920000832126802F0700202610C4A0C321268EE
:1059300002F070024261094A0C32126802F4E0621D
:105940008261064A1032126802F07002C261044A93
:10595000126802F00F020A607047000010440258FB
:105960000020005210B500F047F80D490968C1F356
:1059700003210C4A515C01F01F0120FA01F4084890
:10598000006800F00F001146085C00F01F0024FAC8
:1059900000F005490860054804600846006810BD2D
:1059A000184402582CBD0108600000245C0000244B
:1059B00000B5FFF7D7FF05490968C1F30211044A92
:1059C000515C01F01F01C84000BD00001C4402589A
:1059D0002CBD010800B5FFF7C5FF05490968C1F3F3
:1059E0000221044A515C01F01F01C84000BD0000C3
:1059F0001C4402582CBD0108F0B5824E366806F0F2
:105A0000380636B1082E15D0102E15D0182E7DD19F
:105A100014E07C4E103E3668C6F3401646B1794E0F
:105A2000103E3668C6F3C107774E26FA07F000E04D
:105A30007548E5E07548E3E07548E1E0714E1836D9
:105A4000366806F003046F4E18363668C6F3051143
:105A50006C4E1C36366806F001056A4E24363668F0
:105A6000C6F3CC0616FB05F601EE106AB8EE410A45
:105A7000002971D024B1012C50D0022C6DD16DE0E1
:105A8000604E103E3668C6F340163EB35D4E103E83
:105A90003668C6F3C1075C4E26FA07F301EE103AEA
:105AA000F8EE411A01EE101AB8EE411A81EE812A81
:105AB0009FED581AC0EE011A524E20363668C6F3D2
:105AC000080601EE106AB8EE411A31EE811AF7EEBF
:105AD000001A31EE211A62EE010A1EE001EE101AE0
